:020000040800F2
:10000000700800208901000825190008151800084B
:1000100021190008AF020008111A000800000000B2
:100020000000000000000000000000002B19000884
:10003000D502000800000000291900082D19000849
:10004000A3010008A3010008A3010008A301000800
:10005000A3010008A3010008A3010008A3010008F0
:10006000A3010008A3010008A3010008A3010008E0
:10007000A3010008A3010008B5020008C50200089A
:10008000A3010008A3010008A3010008A3010008C0
:10009000A3010008A3010008A3010008A3010008B0
:1000A000A3010008A3010008A3010008A3010008A0
:1000B000A3010008A301000800000000A30100083C
:1000C000A30100080000000000000000A3010008D8
:1000D00000000000011A0008A30100080000000051
:1000E000A3010008A3010008A301000800F002F822
:1000F00000F03AF80AA090E8000C82448344AAF188
:100100000107DA4501D100F02FF8AFF2090EBAE885
:100110000F0013F0010F18BFFB1A43F0010318473B
:100120002C2A00004C2A0000103A24BF78C878C15D
:10013000FAD8520724BF30C830C144BF04680C60ED
:10014000704700000023002400250026103A28BF35
:1001500078C1FBD8520728BF30C148BF0B60704739
:100160001FB51FBD10B510BD00F06CF81146FFF7AC
:10017000F7FF02F08BF800F08AF803B4FFF7F2FF04
:1001800003BC00F08DF8000009488047094800478B
:10019000FEE7FEE7FEE7FEE7FEE7FEE7FEE7FEE737
:1001A000FEE7FEE704480549054A064B7047000094
:1001B00035190008ED0000087002002070080020CA
:1001C00070040020700400204FF0000200B51346B8
:1001D00094469646203922BFA0E80C50A0E80C5067
:1001E000B1F12001BFF4F7AF090728BFA0E80C5018
:1001F00048BF0CC05DF804EB890028BF40F8042B11
:1002000008BF704748BF20F8022B11F0804F18BF7D
:1002100000F8012B704770477047704710B500F029
:1002200009F8006810BD10B5044600F003F804603A
:1002300010BD0000004870470C02002000487047C5
:100240000C0200207546FFF7F9FFAE46050069462F
:10025000534620F00700854618B020B5FFF7A2FFEF
:10026000BDE820404FF000064FF000074FF00008B7
:100270004FF0000B21F00701AC46ACE8C009ACE838
:10028000C009ACE8C009ACE8C0098D46704710B59C
:100290000446AFF300802046BDE81040FFF76DBF75
:1002A00001491820ABBEFEE726000200704700BFE0
:1002B000FEE7000010B5024800F094F810BD000001
:1002C000B800002010B5024800F08CF810BD000006
:1002D00074000020704772B600BFFEE7014600229E
:1002E00091F82100022808D00420886300BF002074
:1002F00081F8200000BF012070470868006820F0E6
:100300000E000B6818600868006820F001000B6898
:10031000186091F8403001209840CB6B5860012064
:1003200081F8210000BF002081F8200000BF1046A6
:10033000E2E7000070B50446002594F82100022889
:1003400003D00420A063012548E02068006820F065
:100350000E00216808602068006820F00100216814
:1003600008601F492068884201D1012026E01C490D
:1003700014312068884201D110201FE0184928312B
:100380002068884201D1801518E015493C31206869
:10039000884201D1801411E011495031206888420F
:1003A00002D14FF4803009E00D4964312068884261
:1003B00002D14FF4801001E04FF0807008490839F5
:1003C0004860012084F8210000BF002084F820004C
:1003D00000BF606B10B12046616B8847284670BD36
:1003E0000800024070B50446E06B056820680668A6
:1003F00094F84010042088402840002846D006F099
:100400000400002842D02068006800F0200028B9CD
:100410002068006820F004002168086057492068BF
:10042000884201D1042027E05449143120688842D1
:1004300001D1402020E0514928312068884201D173
:10044000001519E04D493C312068884202D14FF433
:10045000804011E0494950312068884202D14FF470
:10046000802009E0454964312068884202D14FF478
:10047000800001E04FF08060404908394860E06A40
:1004800000287AD02046E16A884776E094F8401048
:10049000022088402840A0B306F0020088B32068FC
:1004A000006800F0200040B92068006820F00A00D1
:1004B00021680860012084F82100304920688842C2
:1004C00001D1022028E02D4914312068884201D151
:1004D000202021E0294928312068884201D1401597
:1004E0001AE026493C312068884202D14FF400507E
:1004F00012E0224950312068884203D14FF4003085
:100500000AE017E01D4964312068884202D14FF4A7
:10051000001001E04FF0007018490839486000BF32
:10052000002084F8200000BFA06A30B32046A16AF2
:10053000884722E094F84010082088402840E0B125
:1005400006F00800C8B12068006820F00E0021689D
:10055000086094F8401001208840E16B4860012059
:10056000A06384F8210000BF002084F8200000BFB1
:10057000206B10B12046216B884770BD08000240F7
:100580000146002209B901207047164B0868C01ABD
:100590001423B0FBF3F08000086412480838C863E5
:1005A000022081F821000868026843F6F070824357
:1005B000D1E901031843CB6818430B6918434B6911
:1005C00018438B691843CB691843024308680260DB
:1005D00000208863012081F82100002081F820009C
:1005E00000BFD1E7080002402DE9F04104460D4666
:1005F00016461F464FF0000800BF94F8200001285F
:1006000002D10220BDE8F081012084F8200000BF63
:1006100094F8210001282CD1022084F82100002028
:10062000A0632068006820F00100216808603B4654
:1006300032462946204601F0B9FAE06A30B1206816
:10064000006840F00E00216808600BE02068006838
:1006500020F00400216808602068006840F00A006B
:10066000216808602068006840F001002168086087
:1006700006E000BF002084F8200000BF4FF0020811
:100680004046BFE770B5044600F0AEF90646254681
:10069000681C10B104480078054400BF00F0A4F9BC
:1006A000801BA842FAD370BD180000202DE9F8473E
:1006B00003460022944666E14FF0010808FA02F46E
:1006C000D1F8008008EA0400A0427DD1DFF8CCA276
:1006D000D1F80480A8EB0A09D0453AD014DCB8F16F
:1006E000030F50D009DCB8F1000F31D0B8F1010F81
:1006F0001CD0B8F1020F49D120E0B8F1110F18D089
:10070000B8F1120F42D11EE0B9F5881F25D006DCE2
:10071000B9F5803F20D0B9F5801F37D11AE0B9F57F
:10072000001F18D0B9F5041F30D117E0D1F80CC064
:100730002DE0D1F80C8008F1040C28E0D1F80C80F1
:1007400008F1080C23E0D1F80C8008F10C0C1EE035
:1007500000BF00BF00BF00BF00BF00BFD1F80880CE
:10076000B8F1000F02D14FF0040C0BE0D1F8088073
:10077000B8F1010F03D14FF0080C1C6102E04FF0FB
:10078000080C5C6103E04FF0000C00E000BF00BF0C
:10079000FF2801D8984601E003F104084646FF28E7
:1007A00002D84FEA820803E0A2F108084FEA88085D
:1007B0004746D6F800804FF00F0909FA07F928EAF2
:1007C00009080CFA07F900E085E048EA0908C6F8CC
:1007D0000080D1F8048008F08058B8F1805F7AD1A9
:1007E00000BFDFF8BC81D8F8188048F00108DFF8B6
:1007F000B091C9F81880C846D8F8188008F00108E8
:10080000CDF8008000BF00BF4FEAB9384FEA920927
:1008100058F829504FEA82784FEA18794FF00F08BC
:1008200008FA09F825EA0805DFF87881434502D17E
:100830004FF000080FE0DFF87081434502D14FF020
:10084000010808E0DFF86481434502D14FF0020857
:1008500001E04FF003084FEA82794FEA197908FA6C
:1008600009F848EA0505DFF848814FEA920948F897
:100870002950D1F8048008F48018B8F5801F0AD1F7
:10088000DFF83081D8F8008048EA0008DFF82491CA
:10089000C9F8008009E0DFF81C81D8F8008028EA58
:1008A0000008DFF81091C9F80080D1F8048008F43E
:1008B0000018B8F5001F0FD1DFF8F88008F1040820
:1008C000D8F8008048EA0008DFF8E89009F1040948
:1008D000C9F800800EE055E0DFF8D88008F1040880
:1008E000D8F8008028EA0008DFF8C89009F1040968
:1008F000C9F80080D1F8048008F40038B8F5003F4A
:100900000ED1DFF8B080A8F10408D8F8008048EADA
:100910000008DFF8A090A9F10409C9F800800DE0F3
:10092000DFF89080A8F10408D8F8008028EA0008D1
:10093000DFF88090A9F10409C9F80080D1F804809B
:1009400008F48038B8F5803F0ED1DFF86880A8F150
:100950000808D8F8008048EA0008DFF85890A9F1A4
:100960000809C9F800800DE0DFF84880A8F1080800
:10097000D8F8008028EA0008DFF83890A9F10809C3
:10098000C9F80080521CD1F8008028FA02F8B8F1AA
:10099000000F7FF491AEBDE8F88700000000111051
:1009A0000010024000080140000C0140001001400E
:1009B0000800014008040140024693680B400BB157
:1009C000012000E00020704710B5C26821EA020350
:1009D00002EA010443EA0443036110BD0AB1016164
:1009E00001E00B0403617047014800687047000094
:1009F00010000020034800680349097808440149B1
:100A000008607047100000201800002010B508484A
:100A1000006840F0100006490860032000F0A8F8C4
:100A20000F2000F007F800F02BF8002010BD0000A8
:100A30000020024070B504460E4800784FF47A71E9
:100A4000B1FBF0F00C490968B1FBF0F5284600F065
:100A5000F9FB08B1012070BD102C07D200222146FD
:100A6000501E00F047F80548046001E00120F2E75D
:100A70000020F0E7180000201C00002014000020D7
:100A800008B500BF1148806940F001000F49886136
:100A90000846806900F00100009000BF00BF00BF61
:100AA0000846C06940F08050C8610846C06900F03F
:100AB0008050009000BF00BF00BF0549486820F08B
:100AC000E06040F00070486000BF08BD00100240C8
:100AD0000000014001460846002809DB00F01F0322
:100AE00001229A4043099B0003F1E023C3F800214F
:100AF00000BF70472DE9F05F80460D46164600277F
:100B000001F0E8FA074639462A46334601F0070065
:100B1000C0F1070ABAF1040F02D94FF0040A01E04C
:100B2000C0F1070AD14600F1040ABAF1070F02D258
:100B30004FF0000A01E0A0F1030AD4464FF0010A89
:100B40000AFA09FAAAF1010A0AEA020A0AFA0CFAEE
:100B50004FF0010B0BFA0CFBABF1010B0BEA030B93
:100B60004AEA0B042146404601F0A0FABDE8F09F96
:100B700000BF00F00702064B19684FF6FF0319404B
:100B8000044B0B4343EA0221014B196000BF70473D
:100B90000CED00E00000FA0570B504460D460CB9F6
:100BA000012070BD5A48006800F00700A8420ED22C
:100BB0005748006820F00700284355490860084658
:100BC000006800F00700A84201D00120E9E7207882
:100BD00000F0020002281DD1207800F00400042853
:100BE00005D14C48406840F4E0604A4948602078AC
:100BF00000F00800082805D14648406840F46050DD
:100C0000444948604348406820F0F000A168084328
:100C100040494860207800F0010078B360680128FE
:100C200006D13C48006800F4003090B90120B8E7D4
:100C30006068022806D13748006800F0007040B9AB
:100C40000120AEE73348006800F0020008B9012037
:100C5000A7E73048406820F00300616808432D4949
:100C60004860FFF7C1FE064609E0FFF7BDFE801BA6
:100C700041F28831884202D9032092E707E02548F3
:100C8000406800F00C006168B0EB810FEDD12048A6
:100C9000006800F00700A8420ED91D48006820F047
:100CA000070028431A4908600846006800F007005A
:100CB000A84201D0012074E7207800F00400042845
:100CC00007D11448406820F4E060E1680843114906
:100CD0004860207800F00800082808D10D484068D6
:100CE00020F46050216940EAC1000A49486000F0E0
:100CF0003FF808494968C1F30311074A515CC840ED
:100D00000649086006480068FFF794FE002048E79F
:100D10000020024000100240142B00081C0000209C
:100D20001400002001480068704700001C000020EB
:100D300000B5FFF7F7FF04494968C1F30221034AF0
:100D4000515CC84000BD000000100240242B000888
:100D500000B5FFF7E7FF04494968C1F3C221034A20
:100D6000515CC84000BD000000100240242B000868
:100D700070B500210022002400230020134D696873
:100D800001F00C05EDB1042D02D0082D1AD101E0BF
:100D90000F4819E00F4DC1F38346AB5D01F4803578
:100DA00055B10A4D6D68C5F340450B4E725D084D57
:100DB0005D43B5FBF2F402E0084D03FB05F4204669
:100DC00002E000BF024800BF00BF70BD001002403B
:100DD00000127A00022B0008122B000800093D00C7
:100DE000F8B504460CB90120F8BD207800F00100E8
:100DF000002878D0F848406800F00C0004280CD097
:100E0000F548406800F00C00082811D1F24840680D
:100E100000F48030B0F5803F0AD1EF48006800F45C
:100E2000003000285FD0606800285CD10120DBE73B
:100E300000BF6068B0F5803F06D1E748006840F425
:100E40008030E549086028E0606858B9E2480068E9
:100E500020F48030E04908600846006820F48020D3
:100E600008601AE06068B0F5A02F0BD1DA4800687E
:100E700040F48020D84908600846006840F480307B
:100E800008600AE0D448006820F48030D249086045
:100E90000846006820F48020086000BF606888B1C0
:100EA000FFF7A2FD054606E0FFF79EFD401B642804
:100EB00001D9032098E7C848006800F400300028F2
:100EC000F2D010E0FFF790FD054606E0FFF78CFD3D
:100ED000401B642801D9032086E7BF48006800F45E
:100EE00000300028F2D1207800F00200022857D10B
:100EF000B948406800F00C0050B1B748406800F0B5
:100F00000C00082818D1B448406800F4803098B923
:100F1000B148006800F0020020B12069012801D02A
:100F2000012061E7AC48006820F0F800616940EA00
:100F3000C100A949086033E02069E8B10120A74950
:100F40000860FFF751FD054606E0FFF74DFD401B29
:100F5000022801D9032047E79F48006800F00200FB
:100F60000028F2D09C48006820F0F800616940EA4F
:100F7000C1009949086013E0002098490860FFF714
:100F800033FD054606E0FFF72FFD401B022801D97F
:100F9000032029E79048006800F002000028F2D101
:100FA000207800F0080008282DD1A069B8B10120F0
:100FB0008B490860FFF718FD054606E0FFF714FDB2
:100FC000401B022801D903200EE78348406A00F045
:100FD00002000028F2D0012000F0FEFD13E0002006
:100FE0007F490860FFF700FD054606E0FFF7FCFCBF
:100FF000401B022801D90320F6E67748406A00F03A
:1010000002000028F2D1207800F00400042873D1F7
:1010100000277148C06900F0805070B900BF6E4869
:10102000C06940F080506C49C8610846C06900F052
:101030008050009000BF00BF01276A48006800F49C
:101040008070B0B96748006840F4807065490860F6
:10105000FFF7CAFC054606E0FFF7C6FC401B642804
:1010600001D90320C0E65F48006800F480700028C2
:10107000F2D000BFE068012806D15748006A40F06E
:1010800001005549086227E0E06858B95248006AF3
:1010900020F00100504908620846006A20F0040070
:1010A000086219E0E06805280BD14B48006A40F05F
:1010B0000400494908620846006A40F001000862DD
:1010C0000AE04548006A20F00100434908620846EA
:1010D000006A20F00400086200BFE068A0B1FFF7DA
:1010E00083FC054609E0FFF77FFC401B41F2883195
:1010F000884202D9032077E622E03748006A00F0F0
:1011000002000028EFD012E0FFF76EFC054608E071
:10111000FFF76AFC401B41F28831884201D9032065
:1011200062E62D48006A00F002000028F0D1012F8D
:1011300005D12948C06920F080502749C86100BF07
:10114000E069C8B32448406800F00C00082860D06B
:10115000E069022848D1002020490866FFF744FCD6
:10116000054606E0FFF740FC401B022801D903209A
:101170003AE61948006800F000700028F2D1206AB1
:10118000B0F5803F07D11448406820F40030A168D2
:10119000084311494860D4E9080108430E494968E9
:1011A00021F4741108430C49486001200B4908667A
:1011B000FFF71AFC054607E03DE0FFF715FC401B72
:1011C000022801D903200FE60348006800F00070F0
:1011D0000028F2D02FE00000001002400000424240
:1011E0008004424200700040002014490866FFF766
:1011F000FBFB054606E0FFF7F7FB401B022801D981
:101200000320F1E50E48006800F000700028F2D1DC
:1012100011E0E069012800D1E6E50948466806F4D6
:101220008031206A814204D106F47011606A8142E3
:1012300001D00120D8E50020D6E5000000004242A0
:101240000010024070B504462546681EB0F1807F4C
:1012500001D301200FE0681E4FF0E02148610F210B
:101260004FF0FF3000F022FF00204FF0E0218861B6
:1012700007200861002070BDF8B504460D461646EB
:1012800094F8420020282DD105B10EB90120F8BDF7
:10129000012020630020606332462946204600F08A
:1012A0004BFB0746206B012819D100BF002000909E
:1012B00020680068009020684068009000BF00BF70
:1012C00000BF00BF21680C3151E8001F41F0100041
:1012D00021680C3141E80002002AF3D100E0012727
:1012E0003846D4E70220D2E770B504460D460849D7
:1012F000206888420AD1074B19895868DA689047F4
:101300000448028941682046FFF7B6FF70BD00001F
:1013100000380140FC000020704700002DE9F84F24
:101320000446206805682068C668206847694FF051
:101330000009CA4605F00F09B9F1000F0AD105F0FE
:10134000200038B106F0200020B1204600F0FEFC5D
:10135000BDE8F88FB9F1000F7BD007F0010018B994
:1013600006F49070002874D005F0010030B106F446
:10137000807018B1606C40F00100606405F00400FA
:1013800030B107F0010018B1606C40F002006064F9
:1013900005F0020030B107F0010018B1606C40F0B8
:1013A0000400606405F0080048B106F0200010B9A0
:1013B00007F0010018B1606C40F008006064606CD8
:1013C000002845D005F0200028B106F0200010B11B
:1013D000204600F0BBFC20684069C0F3801A606CB6
:1013E00000F0080010B9BAF1000F2CD0204600F030
:1013F00074FD2068406900F0400000B300BF00BFEA
:101400002168143151E8001F21F040002168143197
:1014100041E80002002AF3D100BFE06B50B17748E9
:10142000E16B4863E06BFEF785FF88B1E06B416BD1
:1014300088470DE02046FFF76FFF09E009E02046EE
:10144000FFF76AFF04E02046FFF766FF00206064B4
:101450007EE7206B012877D105F01000002873D0BB
:1014600006F010000028FAD000BF0020009020688D
:101470000068009020684068009000BF00BF2068AE
:10148000406900F0400000285FD0E06B00684068D1
:101490001FFA80F8B8F1000F55D0A08D404552DDFD
:1014A000A4F82E80E06B8069202843D000BF00BFE5
:1014B00021680C3151E8001F21F4807021680C3143
:1014C00041E80002002AF3D100BF00BF00BF21683D
:1014D000143151E8001F21F001002168143141E866
:1014E0000002002AF3D100BF00BF00BF2168143101
:1014F00051E8001F21F040002168143141E800024A
:10150000002AF3D100BF202084F84200002020638D
:1015100000BF00BF21680C3151E8001F21F010000E
:1015200021680C3141E80002002AF3D100BFE06BD2
:10153000FEF7D4FE02206063A08DE28D801A81B296
:101540002046FFF7D1FE03E742E0A08DE18D401A6F
:101550001FFA80F8E08DD0B3B8F1000F37D000BF8C
:1015600000BF21680C3151E8001F21F49070216800
:101570000C3141E80002002AF3D100BF00BF00BFD8
:101580002168143151E8001F21F001002168143155
:1015900041E80002002AF3D100BF202084F8420075
:1015A0000020206300BF00BF21680C3151E8001FFC
:1015B00021F0100021680C3141E80002002AF3D12B
:1015C00000BF0220606341462046FFF78DFEBFE664
:1015D00005F0800030B106F0800018B1204600F020
:1015E00033FCB5E605F0400030B106F0400018B11C
:1015F000204600F015FDABE600BFA9E6412000083B
:1016000010B504460CB9012010BDA06900B100E07E
:1016100000BF94F8410028B9002084F8400020461B
:1016200000F02AF8242084F841002068C06820F4E3
:1016300000502168C860204600F00AFB206800695D
:1016400020F49040216808612068406920F02A0059
:10165000216848612068C06840F400502168C86073
:1016600000206064202084F8410084F842000020BB
:10167000606300BFC8E7000010B586B004460020D4
:10168000029003900490059037492068884268D101
:1016900000BF3648806940F480403449886108467C
:1016A000806900F48040019000BF00BF00BF084681
:1016B000806940F0040088610846806900F00400F9
:1016C000019000BF00BF48150290022003900590D2
:1016D00002A92748FEF7EAFF4FF48060029000203D
:1016E0000390049002A92248FEF7E0FF2148224916
:1016F00008600020486000211F4881608021C1608F
:101700000021016141618161C161FEF739FF08B1CA
:10171000FEF7E1FD00BF1848E063446200BF1548D2
:101720001438164908601020486000211348816071
:101730008021C1600021016141618161C161FEF7C9
:101740001FFF08B1FEF7C7FD00BF0C48A06344624D
:1017500000BF002211462520FFF7CCF92520FFF716
:10176000B9F906B010BD0000003801400010024079
:10177000000801405800024074000020B80000201A
:1017800070477047F7B50446154694F84100202885
:1017900036D1019800B10DB90120FEBD019820623B
:1017A000A584E58400206064212084F84100154868
:1017B000A16B88621448A16BC8621448A16B0863CE
:1017C0000020A16B486301AE23681A1D31682B46C7
:1017D000A06BFEF709FF6FF040002168086000BFB2
:1017E00000BF2168143151E8001F41F080002168DA
:1017F000143141E80002002AF3D100BF0020CCE7F9
:101800000220CAE755200008CD1E0008011C000870
:101810007047704700BFFEE708B500BF0E4840693B
:1018200040F001000C4948610846406900F00100A1
:10183000009000BF00BF002211460E20FFF75AF9AA
:101840000E20FFF747F9002211460F20FFF752F94B
:101850000F20FFF73FF908BD0010024000B585B02A
:101860000020019002900390049000BF1C48806902
:1018700040F010001A4988610846806900F01000A5
:10188000009000BF00BF00BF0846806940F0200004
:1018900088610846806900F02000009000BF00BF0A
:1018A00000BF0846806940F00400886108468069EE
:1018B00000F00400009000BF00BF0122510309485E
:1018C000FFF78CF84FF40050019001200290039034
:1018D0000220049001A90348FEF7E8FE05B000BD10
:1018E000001002400010014010B50B480B49086081
:1018F0004FF4E1304860002108488160C160016117
:101900000C21416100218161C161FFF779FE08B1BD
:10191000FEF7E1FC10BD0000003801402C00002063
:1019200000BFFEE700BFFEE77047704710B5FFF746
:1019300061F810BD7047000077B581B004461546C8
:101940000298A062A58500206064222084F84200ED
:101950002848E16B88622848E16BC8622748E16B40
:1019600008630020E16B486302AE32682368191DEA
:101970002B46E06BFEF738FE00BF00200090206889
:101980000068009020684068009000BF00BF206998
:1019900070B100BF00BF21680C3151E8001F41F455
:1019A000807021680C3141E80002002AF3D100BFA9
:1019B00000BF00BF2168143151E8001F41F0010051
:1019C0002168143141E80002002AF3D100BF00BFB2
:1019D00000BF2168143151E8001F41F04000216828
:1019E000143141E80002002AF3D100BF002004B006
:1019F00070BD00006D1F0008A91E0008011C000832
:101A000010B50248FFF78AFC10BD00002C00002032
:101A100000BFFEE770B504460D461646324629461D
:101A20002046FFF7AFFE70BD00B58FB0282105A896
:101A3000FEF7CAFB14216846FEF7C6FB012005909D
:101A400000040690002007900120099002200C90CD
:101A5000C1030D914FF4E0110E9105A8FFF7C0F9F5
:101A600008B1FEF738FC0F20009002200190002002
:101A700002904FF480600390002004900221684699
:101A8000FFF78AF808B1FEF726FC0FB000BD000092
:101A900070B504460D460F480078312806D1002263
:101AA0004FF400510C48FEF799FF12E00948007806
:101AB000322805D1012251030748FEF78FFF08E0C5
:101AC00004480078332804D14FF400510248FEF74F
:101AD0007BFF70BD20000020001001407CB5204835
:101AE000006800F00FFE06461E4900F015FD044692
:101AF000204600F0E5FB05461B4900F017FE01906B
:101B0000002005E001A90A5C184B411C5A54C8B2D8
:101B10000428F7DB4FF400511548FEF74DFF08B9D4
:101B2000012000E00020044600F0D4FD00900020D9
:101B300006E01DF800200D4B411D5A54411CC8B24F
:101B40000428F6DB0020FEF79DFD05480068401CD8
:101B500003490860092205490648FFF75BFF7CBD81
:101B60000C00002000007A440000A040000000208B
:101B7000001001402C0000202DE9F04104460D46E4
:101B800016461F4607492068884204D1064845602A
:101B900006810460C760324629462046FFF76CFB89
:101BA000BDE8F08100380140FC00002030B590F81D
:101BB00040500124AC40C56B6C60046863604468AD
:101BC000102C04D10468A2600468E16003E004689A
:101BD000A1600468E26030BD08B508490968C90819
:101BE0004FF47A72B1FBF2F14143009100BF00BFA4
:101BF00000994A1E00920029F9D108BD1C0000205E
:101C000070B506460025746A20684069C0F3C015A7
:101C100094F84100212805D125B10020E084204618
:101C200000F091F920684069C0F3801594F84200F3
:101C3000222805D125B10020E085204600F04DF98D
:101C4000606C40F0100060642046FFF765FB70BDDB
:101C500070B504462168096921F44051E2681143D6
:101C6000226811612269A1681143626941EA020593
:101C70002168C96841F20C62914329432268D1600E
:101C80002168496921F44071A269114322685161B8
:101C90002D4A2168914202D1FFF75AF801E0FFF77F
:101CA00047F800EBC00101EB001162689200B1FB44
:101CB000F2F100EBC00202EB001263689B00B2FB82
:101CC000F3F26423B2FBF3F202EBC20303EB021262
:101CD000A1EB8201322202EB01116422B1FBF2F18D
:101CE00001F0F00100EBC00202EB001263689B0000
:101CF000B2FBF3F26423B2FBF3F201EB021200EB4E
:101D0000C00101EB001163689B00B1FBF3F100EB34
:101D1000C00303EB00136668B600B3FBF6F364265A
:101D2000B3FBF6F303EBC30606EB0313A1EB83014E
:101D3000322303EB01116423B1FBF3F101F00F0136
:101D400011442268916070BD00380140F8B5044626
:101D500094F84200222875D1A068B0F5805F0CD1BC
:101D6000206950B90025A66A20684068C0F30800C1
:101D70003080A06A801CA06215E0A56A0026A068D9
:101D8000B0F5805F03D0A06828B9206918B9206831
:101D90004068287004E02068406800F07F002870E8
:101DA000A06A401CA062E08D401E80B2E085002841
:101DB00046D12068C06820F020002168C8602068F3
:101DC000C06820F480702168C8602068406920F0F5
:101DD000010021684861202084F8420000206063EF
:101DE000206B012826D10020206300BF00BF21689E
:101DF0000C3151E8001F21F0100021680C3141E83E
:101E00000002002AF3D100BF2068006800F0100033
:101E100010280AD100BF00200090206800680090C0
:101E200020684068009000BF00BFA18D2046FFF7EA
:101E30005BFA02E02046FFF7A3FC0020F8BD01E0BA
:101E40000020FBE70220F9E7014691F84100212834
:101E500028D18868B0F5805F0BD1086948B90A6A53
:101E60001088C0F308000B685860086A801C08627C
:101E700005E00B6A581C086218780B685860C88C1B
:101E8000401E80B2C88458B90868C06820F080003D
:101E90000B68D8600868C06840F040000B68D860E4
:101EA000002070470220FCE770B505466C6A0120EF
:101EB0006063206B012805D1A08D41082046FFF703
:101EC00013FA02E02046FFF75CFC70BD70B50446D3
:101ED000656A2846FFF79DFC70BD00BF00BF026821
:101EE0000C3252E8002F22F4907102680C3242E862
:101EF0000013002BF3D100BF00BF00BF02681432F3
:101F000052E8002F22F001010268143242E8001367
:101F1000002BF3D100BF016B01290ED100BF00BF20
:101F200002680C3252E8002F22F0100102680C32D5
:101F300042E80013002BF3D100BF202180F84210AB
:101F400000210163704700BF00BF02680C3252E8F5
:101F5000002F22F0C00102680C3242E80013002B6F
:101F6000F3D100BF202180F84110704770B50546BD
:101F70006C6A2868006800F02000002842D1E085E3
:101F800000BF00BF21680C3151E8001F21F48070B0
:101F900021680C3141E80002002AF3D100BF00BFE4
:101FA00000BF2168143151E8001F21F001002168B1
:101FB000143141E80002002AF3D100BF00BF00BF86
:101FC0002168143151E8001F21F0400021681431CC
:101FD00041E80002002AF3D100BF202084F842002B
:101FE000206B01280ED100BF00BF21680C3151E8E1
:101FF000001F21F0100021680C3141E80002002A86
:10200000F3D100BF00206063206B012804D1A18DB3
:102010002046FFF769F902E02046FFF7B1FB70BDEB
:1020200010B504462068C06820F040002168C860F0
:10203000202084F841002046FFF7EAFB002010BD75
:1020400070B505466C6A0020E085E0842046FFF705
:1020500063F970BD70B505466C6A2868006800F0C9
:102060002000F8B90020E08400BF00BF21681431CF
:1020700051E8001F21F080002168143141E800027E
:10208000002AF3D100BF00BF00BF21680C3151E826
:10209000001F41F0400021680C3141E80002002A95
:1020A000F3D102E02046FFF7B3FB70BD10B5002866
:1020B00004DB0A07130E054A135406E00A07140E40
:1020C000034A00F00F031B1FD45410BD00E400E0CE
:1020D00018ED00E002480068C0F3022070470000DD
:1020E0000CED00E04100080218BF04200A0E18BFE2
:1020F00040F001004FF07F4232EA010108BF40F09A
:102100000200012808BF05207047012100F0BBBC78
:102110000021084600F000BA6FF05E01080700F0E9
:10212000B2BC00002DE9F04D0D4614464FF07F4142
:10213000B1EB440F9EBF4FF0FF312960BDE8F08D39
:102140004FF0004040EA0421C4F3C750783810F043
:102150001F024A4B4FEA601CC2F120067B44C4F3C5
:10216000C750A0F178004FEA601003EB800053F8ED
:102170002C3008BFD0E901C612D0D0F804C093407B
:102180002CFA06F73B4387680CFA02FC27FA06F89C
:10219000C06807FA02F2F0404CEA080C42EA000676
:1021A000A3FB0132ACFB01C0A6FB016101EB0C06F5
:1021B0008E4234BF4FF0010C4FF0000CC118614447
:1021C000BCF1000F02D0814202D903E0814201D26A
:1021D000012000E00020104400F120024FEA921894
:1021E0008006CA0C40EA42304F03C5F8008000F078
:1021F00071FA8246384600F085FA6FF0120100F05D
:1022000042FC0746304600F07DFA6FF0250100F0F1
:102210003AFC83463946504600F016F9594600F01C
:1022200013F900F500666FF30B065146304600F0D7
:1022300083FB394600F080FB594600F073FB1049E0
:1022400000F074FA07460F49304600F06FFA39463D
:1022500000F0FAF807460C49304600F067FA3946B4
:1022600000F0F2F814F0004F08BFBDE8F08DC8F19F
:10227000805180F000402960BDE8F08DCC0900005D
:10228000DB0FC92F22AAFD290000C92FFEF7BEFBD4
:10229000FFF7CAFBFFF7E2FAFFF7BEFAFFF724FBEE
:1022A000044B0A2204490548FFF766FC01E0FFF7EA
:1022B00015FCFCE7911A0008200000202C000020EB
:1022C0002DE9F8430446024652486946B0EB420FF6
:1022D00009D94FF0E640B0EB420F94BF00204FF019
:1022E000FF30009030E04C4B22F00040834271D927
:1022F0004A49204600F01AFA00F0E4FA804600F05D
:10230000CDF900F0030000904549404600F00EFA78
:1023100005464449404600F009FA0646424940460F
:1023200000F004FA07464149404600F0FFF9214613
:1023300000F0F8FA394600F0FFFA314600F0FCFAF6
:10234000294600F0F9FA04462546009C002C45DB9E
:10235000294614F0010F08461ED000F0E7F90546A3
:10236000334900F0E3F9334900F06EF8294600F0F4
:10237000DDF9314900F068F8294600F0D7F94FF04F
:102380007E5100F061F814F0020F08BFBDE8F88339
:1023900080F00040BDE8F88300F0C8F90646274900
:1023A00000F0C4F9264900F0BDFA314600F0BEF94C
:1023B000244900F049F8314600F0B8F9294600F008
:1023C000B5F9294600F040F814F0020FE0D1BDE85D
:1023D000F883FFE71046FFF7A5FEB4E76800B0F109
:1023E0007F4F09D22846FFF77DFE042808BFFFF77C
:1023F00093FE2846BDE8F88306D10120FDF713FFC0
:10240000BDE8F843FFF784BE2846BDE8F843FFF770
:102410007CBE0000B61F927E490E494683F9223FDA
:102420001A61342C0020A23300A0FD390000C93FFE
:10243000B93AB2BACA9F2A3DDDFFFFBE336D4C39AF
:10244000DA82083CA0AA2ABE90EA010F48BF81F0B8
:10245000004100F17882421A3CBF801A89184FEA85
:10246000D0524FF07F4C1CEA410FA2EBD15318BF62
:102470009CEA026F00F03B804FF0004C4CEA0020D9
:102480004CEA012121FA03FC10EB0C0C1ED202F1E4
:10249000FF325FEA1C2040EBC25038BF70471CF08F
:1024A0007F0F4FEA400C18BFBCF17F4F38BF704719
:1024B000C3F12003994008BF20F00100BCF17F4F19
:1024C00038BF7047A0F1C04000F0F7B94FEA3C00B8
:1024D000000A40EBC25028BF1CF0FF0F4FEA400C2F
:1024E000E6D018BFBCF17F4F38BF7047EAE79CEADF
:1024F000026F05D010EA5C0F08BF00F00040704783
:1025000010B500F094F900BF64FBBE3E014800F036
:1025100088BA00BF0000C07F4FF47F0C1CEAD012C5
:102520001EBF1CEAD11392EA0C0F93EA0C0F00F0C5
:10253000858090EA010F48BF42F4807240F4000C9D
:1025400041F400002CF07F4120F07F4000B5814233
:10255000A2EB03020FF2081CACEB504EC0F10000DE
:102560009EF800E04FEA4E0E00FB0EFC38BF49001B
:102570004FEA2C1C02F5FA020CFB0EF34FEACE1EBA
:102580004FEA112C4FEAC1210EEB635E42EB22426F
:102590000EFB0CFC4FEA1C5300FB03114FEA112CFD
:1025A0004FEA01310EFB0CFC4FEADC4C00FB0C1136
:1025B000C14228BF09184CEB03335DF804EB10EB64
:1025C000410143EBC250B2F57C0F38BF704729D5AB
:1025D00012F0F00F1CBF00F1C04000F00040704747
:1025E000008182838485868788898B8C8D8E8F91EC
:1025F0009293959697999A9C9D9FA0A2A3A5A7A810
:10260000AAACAEB0B2B3B5B7B9BCBEC0C2C5C7C93B
:10261000CCCED1D4D7D9DCDFE2E6E9ECF0F3F7FA9F
:10262000FE0000004FEA400C0CF1807CBCF17E4FB4
:1026300028BF7047B0F1C04000F03FB990EA010FE9
:102640000CEAD11348BF42F48072624538BF63453B
:1026500007D213F47F0F16D080EA010000F000408B
:10266000704710B500F0E3F8097EFC3E00F005B8B5
:1026700080EA010000F00040704780EA010000F0AD
:10268000004000F01AB912F47F0F04BF02487047EF
:1026900080EA010000F011B90000C07F41000B0E7C
:1026A000D3F19E0208D950F400034FEA032323FA22
:1026B00002F048BF4042704710B500F0B8F800BFC4
:1026C00049922480002070476FF0004282EA200087
:1026D0007047000010F0004148BF4042B0FA80F35C
:1026E00010FA03F2C3F19D030BD051EAC35101EB81
:1026F0001220530638BF704700F1010008BF20F0D8
:1027000001007047B0FA80F310FA03F2C3F19D03A1
:102710000AD0D90501EB1220530638BF704700F1EB
:10272000010008BF20F00100704700004FF47F0C4B
:102730001CEAD0121EBF1CEAD11392EA0C0F93EAD6
:102740000C0F00F0478090EA010F48BF42F48072FE
:102750004FF0004C4CEA00204CEA012102EB03024E
:10276000A0FB0113A2F50002002918BF43F00103EA
:102770005B0028BF4FEA330342EB22425FEA132C8F
:102780004CEBC2502EBFBCEB436FB2F57C0F7047D1
:102790004FEA036CBCF1004F08BF20F00100B2F516
:1027A0007C0F38BF70470BD582F0FF0212F5803FD7
:1027B000C8BF704700F1C040D8BF00F0004070476C
:1027C00000F5000C5FEA4C0C48BF7047B0F1C04008
:1027D00000F073B890EA010F0CEAD11348BF42F43D
:1027E0008072624538BF634504D280EA010000F080
:1027F0000040704710B500F01AF800BF8900013E94
:1028000000F007B800F009B85FEA410C5FEA1C6C01
:1028100008D080EA010000F050B85FEA400C5FEA9F
:102820001C6CF6D14FF00040A0F5800070470EF10F
:10283000020E2EF0030E5EF8044B244204D44FEA3D
:102840004102B2F17F4F11D84FEA4003B3F17F4FFD
:102850000CD80ED14FEAD07CB2F17F4F0CEB4C0C70
:102860000CF1020C08BF4CEBD17C04E04FF0080CDB
:1028700001E04FEAD17C0CEB4C0324FA03F404F0A2
:102880000704B4F1040C06D20EEB840CBDE8104032
:102890004CF0010C6047DFE80CF0070802024FF033
:1028A0000040A0F5800010BD0846420018BFD2F1DC
:1028B000807288BF00F0004010BDFF2141EAD05077
:1028C000C00570475FEA400C5FEA1C6CBCF17F03F7
:1028D00014D4D3F1170240F31C804FF0010C0CFA12
:1028E00002FCACF101030340B3EB5C0220EA0300FD
:1028F00008BF10EA0C0F88BF60447047B3F1FF3F78
:1029000028BF5FEA002C00F0004088BF40F07E50F6
:102910007047BCF1FF0FB8BF704710B5FFF787FFD6
:1029200040DBB6BE80F0004090EA010F7FF593AD2A
:1029300081F0004100F007B890EA010F48BF81F034
:1029400000413FF588AD421A04D882F00042A0EB66
:10295000020011444FEAD0524FF07F4C1CEA410F65
:10296000A2EBD15318BF9CEA026F4AD04FF0004C43
:102970004CEA00204CEA012121FA03FCB0EB0C0CDC
:102980000FD412F0FE0F36D05FEA4C001DD50012B6
:1029900040EBC25038BF70471CF03F0F18BF704764
:1029A0000BE0A2F101025FEA1C2040EBC25038BFED
:1029B00070471CF07F0F18BF7047C3F12003994088
:1029C00014BF401E20F00100704780084FEA122318
:1029D00008BF7047B0FA80FCA2EB0C02CCF1280CC7
:1029E00060FA0CF093EA122F04BF00EBC25070475C
:1029F0004FEAC3707047130A5FEADC1008BF7047E4
:102A0000F6E79CEA026F04D010EA5C0F08BF0020D2
:102A1000704710B5FFF70BFF40DFF63E81F0004036
:102A200070470CF00F03092B08BF082000F05180FD
:102A30000A2B0BD0082B18BF704708BF1CF0400FA3
:102A40000AD04FF000004FF0000170471CF0400F1B
:102A500018BF4FF0004070471CF0100F08D020F056
:102A6000704300F07F4242EAD3014FEA437070475F
:102A700000F0604021F07F4242EA000201F07F4016
:102A800040EA727070474FF0FF0212EAD0521CBF4A
:102A900092F0FF038B42C2BFD14200EBC15070479E
:102AA000002A0AD0002B0BD0002900F00040A4BF60
:102AB00040F0FE4040F40000704700F000407047D6
:102AC00043024FF00B0C18BF4CF0806C7FF41EAD2E
:102AD00070471CF4801F11D01CF4E02F03D06FEA64
:102AE000CC31490070474FF04050EFF3008222F0A4
:102AF000704242EA000282F3008870474FF0000003
:102B0000704702030405060708090A0B0C0D0E0F97
:102B10001010010200000000000000000102030488
:102B2000060708090000000001020304000000007D
:102B30006E83F9A22915444ED15727FCC0DD34F528
:102B4000999562DB4190433CAB6351FE6C2B0008CE
:102B50000000002020000000280100088C2B000845
:102B6000200000205008000044010008AB000000D5
:102B70000000000000000000000000000000000055
:0C2B8000100000000100000000127A00AC
:04000005080000ED02
:00000001FF
